{
  "contractName": "Dex",
  "abi": [
    {
      "inputs": [],
      "stateMutability": "nonpayable",
      "type": "constructor"
    },
    {
      "anonymous": false,
      "inputs": [
        {
          "indexed": true,
          "internalType": "address",
          "name": "previousOwner",
          "type": "address"
        },
        {
          "indexed": true,
          "internalType": "address",
          "name": "newOwner",
          "type": "address"
        }
      ],
      "name": "OwnershipTransferred",
      "type": "event"
    },
    {
      "inputs": [
        {
          "internalType": "bytes32",
          "name": "ticker",
          "type": "bytes32"
        },
        {
          "internalType": "address",
          "name": "tokenAddress",
          "type": "address"
        }
      ],
      "name": "addToken",
      "outputs": [],
      "stateMutability": "nonpayable",
      "type": "function"
    },
    {
      "inputs": [
        {
          "internalType": "address",
          "name": "",
          "type": "address"
        },
        {
          "internalType": "bytes32",
          "name": "",
          "type": "bytes32"
        }
      ],
      "name": "balances",
      "outputs": [
        {
          "internalType": "uint256",
          "name": "",
          "type": "uint256"
        }
      ],
      "stateMutability": "view",
      "type": "function",
      "constant": true
    },
    {
      "inputs": [
        {
          "internalType": "uint256",
          "name": "amount",
          "type": "uint256"
        },
        {
          "internalType": "bytes32",
          "name": "ticker",
          "type": "bytes32"
        }
      ],
      "name": "deposit",
      "outputs": [],
      "stateMutability": "nonpayable",
      "type": "function"
    },
    {
      "inputs": [],
      "name": "owner",
      "outputs": [
        {
          "internalType": "address",
          "name": "",
          "type": "address"
        }
      ],
      "stateMutability": "view",
      "type": "function",
      "constant": true
    },
    {
      "inputs": [],
      "name": "renounceOwnership",
      "outputs": [],
      "stateMutability": "nonpayable",
      "type": "function"
    },
    {
      "inputs": [
        {
          "internalType": "uint256",
          "name": "",
          "type": "uint256"
        }
      ],
      "name": "tokenList",
      "outputs": [
        {
          "internalType": "bytes32",
          "name": "",
          "type": "bytes32"
        }
      ],
      "stateMutability": "view",
      "type": "function",
      "constant": true
    },
    {
      "inputs": [
        {
          "internalType": "bytes32",
          "name": "",
          "type": "bytes32"
        }
      ],
      "name": "tokenMapping",
      "outputs": [
        {
          "internalType": "bytes32",
          "name": "ticker",
          "type": "bytes32"
        },
        {
          "internalType": "address",
          "name": "tokenAddress",
          "type": "address"
        }
      ],
      "stateMutability": "view",
      "type": "function",
      "constant": true
    },
    {
      "inputs": [
        {
          "internalType": "address",
          "name": "newOwner",
          "type": "address"
        }
      ],
      "name": "transferOwnership",
      "outputs": [],
      "stateMutability": "nonpayable",
      "type": "function"
    },
    {
      "inputs": [
        {
          "internalType": "uint256",
          "name": "amount",
          "type": "uint256"
        },
        {
          "internalType": "bytes32",
          "name": "ticker",
          "type": "bytes32"
        }
      ],
      "name": "withdraw",
      "outputs": [],
      "stateMutability": "nonpayable",
      "type": "function"
    },
    {
      "inputs": [
        {
          "internalType": "bytes32",
          "name": "ticker",
          "type": "bytes32"
        },
        {
          "internalType": "enum Dex.Side",
          "name": "side",
          "type": "uint8"
        }
      ],
      "name": "getOrderBook",
      "outputs": [
        {
          "components": [
            {
              "internalType": "uint256",
              "name": "id",
              "type": "uint256"
            },
            {
              "internalType": "address",
              "name": "trader",
              "type": "address"
            },
            {
              "internalType": "bool",
              "name": "buyOrder",
              "type": "bool"
            },
            {
              "internalType": "enum Dex.Side",
              "name": "side",
              "type": "uint8"
            },
            {
              "internalType": "bytes32",
              "name": "ticker",
              "type": "bytes32"
            },
            {
              "internalType": "uint256",
              "name": "amount",
              "type": "uint256"
            },
            {
              "internalType": "uint256",
              "name": "price",
              "type": "uint256"
            }
          ],
          "internalType": "struct Dex.Order[]",
          "name": "",
          "type": "tuple[]"
        }
      ],
      "stateMutability": "view",
      "type": "function",
      "constant": true
    }
  ],
  "bytecode": "0x608060405234801561001057600080fd5b5061002d61002261003260201b60201c565b61003a60201b60201c565b6100fe565b600033905090565b60008060009054906101000a900473ffffffffffffffffffffffffffffffffffffffff169050816000806101000a81548173ffffffffffffffffffffffffffffffffffffffff021916908373ffffffffffffffffffffffffffffffffffffffff1602179055508173ffffffffffffffffffffffffffffffffffffffff168173ffffffffffffffffffffffffffffffffffffffff167f8be0079c531659141344cd1fd0a4f28419497f9722a3daafe3b4186f6b6457e060405160405180910390a35050565b6115ce8061010d6000396000f3fe608060405234801561001057600080fd5b506004361061009e5760003560e01c80639ead7222116100665780639ead722214610148578063a8d2021a14610178578063ba58ea6814610194578063c9630cb0146101c4578063f2fde38b146101e05761009e565b80631f14df69146100a3578063667cb4ba146100d3578063715018a6146101045780638da5cb5b1461010e5780639776aacf1461012c575b600080fd5b6100bd60048036038101906100b89190610db6565b6101fc565b6040516100ca919061128a565b60405180910390f35b6100ed60048036038101906100e89190610e1b565b610221565b6040516100fb9291906111e1565b60405180910390f35b61010c610265565b005b6101166102ed565b6040516101239190611129565b60405180910390f35b61014660048036038101906101419190610e44565b610316565b005b610162600480360381019061015d9190610ebc565b610451565b60405161016f91906111c6565b60405180910390f35b610192600480360381019061018d9190610ee5565b610475565b005b6101ae60048036038101906101a99190610e80565b61072f565b6040516101bb91906111a4565b60405180910390f35b6101de60048036038101906101d99190610ee5565b61090b565b005b6101fa60048036038101906101f59190610d8d565b610b34565b005b6001602052816000526040600020602052806000526040600020600091509150505481565b60036020528060005260406000206000915090508060000154908060010160009054906101000a900473ffffffffffffffffffffffffffffffffffffffff16905082565b61026d610c2c565b73ffffffffffffffffffffffffffffffffffffffff1661028b6102ed565b73ffffffffffffffffffffffffffffffffffffffff16146102e1576040517f08c379a00000000000000000000000000000000000000000000000000000000081526004016102d89061124a565b60405180910390fd5b6102eb6000610c34565b565b60008060009054906101000a900473ffffffffffffffffffffffffffffffffffffffff16905090565b61031e610c2c565b73ffffffffffffffffffffffffffffffffffffffff1661033c6102ed565b73ffffffffffffffffffffffffffffffffffffffff1614610392576040517f08c379a00000000000000000000000000000000000000000000000000000000081526004016103899061124a565b60405180910390fd5b60405180604001604052808381526020018273ffffffffffffffffffffffffffffffffffffffff16815250600360008481526020019081526020016000206000820151816000015560208201518160010160006101000a81548173ffffffffffffffffffffffffffffffffffffffff021916908373ffffffffffffffffffffffffffffffffffffffff16021790555090505060028290806001815401808255809150506001900390600052602060002001600090919091909150555050565b6002818154811061046157600080fd5b906000526020600020016000915090505481565b80600073ffffffffffffffffffffffffffffffffffffffff166003600083815260200190815260200160002060010160009054906101000a900473ffffffffffffffffffffffffffffffffffffffff1673ffffffffffffffffffffffffffffffffffffffff16141561051c576040517f08c379a00000000000000000000000000000000000000000000000000000000081526004016105139061122a565b60405180910390fd5b82600160003373ffffffffffffffffffffffffffffffffffffffff1673ffffffffffffffffffffffffffffffffffffffff16815260200190815260200160002060008481526020019081526020016000205410156105af576040517f08c379a00000000000000000000000000000000000000000000000000000000081526004016105a69061126a565b60405180910390fd5b61061283600160003373ffffffffffffffffffffffffffffffffffffffff1673ffffffffffffffffffffffffffffffffffffffff168152602001908152602001600020600085815260200190815260200160002054610cf890919063ffffffff16565b600160003373ffffffffffffffffffffffffffffffffffffffff1673ffffffffffffffffffffffffffffffffffffffff1681526020019081526020016000206000848152602001908152602001600020819055506003600083815260200190815260200160002060010160009054906101000a900473ffffffffffffffffffffffffffffffffffffffff1673ffffffffffffffffffffffffffffffffffffffff1663a9059cbb33856040518363ffffffff1660e01b81526004016106d792919061117b565b602060405180830381600087803b1580156106f157600080fd5b505af1158015610705573d6000803e3d6000fd5b505050506040513d601f19601f820116820180604052508101906107299190610df2565b50505050565b606060046000848152602001908152602001600020600083600181111561077f577f4e487b7100000000000000000000000000000000000000000000000000000000600052602160045260246000fd5b8152602001908152602001600020805480602002602001604051908101604052809291908181526020016000905b828210156108ff57838290600052602060002090600502016040518060e0016040529081600082015481526020016001820160009054906101000a900473ffffffffffffffffffffffffffffffffffffffff1673ffffffffffffffffffffffffffffffffffffffff1673ffffffffffffffffffffffffffffffffffffffff1681526020016001820160149054906101000a900460ff161515151581526020016001820160159054906101000a900460ff166001811115610896577f4e487b7100000000000000000000000000000000000000000000000000000000600052602160045260246000fd5b60018111156108ce577f4e487b7100000000000000000000000000000000000000000000000000000000600052602160045260246000fd5b81526020016002820154815260200160038201548152602001600482015481525050815260200190600101906107ad565b50505050905092915050565b80600073ffffffffffffffffffffffffffffffffffffffff166003600083815260200190815260200160002060010160009054906101000a900473ffffffffffffffffffffffffffffffffffffffff1673ffffffffffffffffffffffffffffffffffffffff1614156109b2576040517f08c379a00000000000000000000000000000000000000000000000000000000081526004016109a99061122a565b60405180910390fd5b6003600083815260200190815260200160002060010160009054906101000a900473ffffffffffffffffffffffffffffffffffffffff1673ffffffffffffffffffffffffffffffffffffffff166323b872dd3330866040518463ffffffff1660e01b8152600401610a2593929190611144565b602060405180830381600087803b158015610a3f57600080fd5b505af1158015610a53573d6000803e3d6000fd5b505050506040513d601f19601f82011682018060405250810190610a779190610df2565b50610adb83600160003373ffffffffffffffffffffffffffffffffffffffff1673ffffffffffffffffffffffffffffffffffffffff168152602001908152602001600020600085815260200190815260200160002054610d0e90919063ffffffff16565b600160003373ffffffffffffffffffffffffffffffffffffffff1673ffffffffffffffffffffffffffffffffffffffff168152602001908152602001600020600084815260200190815260200160002081905550505050565b610b3c610c2c565b73ffffffffffffffffffffffffffffffffffffffff16610b5a6102ed565b73ffffffffffffffffffffffffffffffffffffffff1614610bb0576040517f08c379a0000000000000000000000000000000000000000000000000000000008152600401610ba79061124a565b60405180910390fd5b600073ffffffffffffffffffffffffffffffffffffffff168173ffffffffffffffffffffffffffffffffffffffff161415610c20576040517f08c379a0000000000000000000000000000000000000000000000000000000008152600401610c179061120a565b60405180910390fd5b610c2981610c34565b50565b600033905090565b60008060009054906101000a900473ffffffffffffffffffffffffffffffffffffffff169050816000806101000a81548173ffffffffffffffffffffffffffffffffffffffff021916908373ffffffffffffffffffffffffffffffffffffffff1602179055508173ffffffffffffffffffffffffffffffffffffffff168173ffffffffffffffffffffffffffffffffffffffff167f8be0079c531659141344cd1fd0a4f28419497f9722a3daafe3b4186f6b6457e060405160405180910390a35050565b60008183610d069190611345565b905092915050565b60008183610d1c91906112ef565b905092915050565b600081359050610d338161152c565b92915050565b600081519050610d4881611543565b92915050565b600081359050610d5d8161155a565b92915050565b600081359050610d7281611571565b92915050565b600081359050610d8781611581565b92915050565b600060208284031215610d9f57600080fd5b6000610dad84828501610d24565b91505092915050565b60008060408385031215610dc957600080fd5b6000610dd785828601610d24565b9250506020610de885828601610d4e565b9150509250929050565b600060208284031215610e0457600080fd5b6000610e1284828501610d39565b91505092915050565b600060208284031215610e2d57600080fd5b6000610e3b84828501610d4e565b91505092915050565b60008060408385031215610e5757600080fd5b6000610e6585828601610d4e565b9250506020610e7685828601610d24565b9150509250929050565b60008060408385031215610e9357600080fd5b6000610ea185828601610d4e565b9250506020610eb285828601610d63565b9150509250929050565b600060208284031215610ece57600080fd5b6000610edc84828501610d78565b91505092915050565b60008060408385031215610ef857600080fd5b6000610f0685828601610d78565b9250506020610f1785828601610d4e565b9150509250929050565b6000610f2d838361107d565b60e08301905092915050565b610f4281611379565b82525050565b610f5181611379565b82525050565b6000610f62826112b5565b610f6c81856112cd565b9350610f77836112a5565b8060005b83811015610fa8578151610f8f8882610f21565b9750610f9a836112c0565b925050600181019050610f7b565b5085935050505092915050565b610fbe8161138b565b82525050565b610fcd81611397565b82525050565b610fdc81611397565b82525050565b610feb816113de565b82525050565b6000610ffe6026836112de565b91506110098261144e565b604082019050919050565b60006110216014836112de565b915061102c8261149d565b602082019050919050565b60006110446020836112de565b915061104f826114c6565b602082019050919050565b60006110676016836112de565b9150611072826114ef565b602082019050919050565b60e082016000820151611093600085018261110b565b5060208201516110a66020850182610f39565b5060408201516110b96040850182610fb5565b5060608201516110cc6060850182610fe2565b5060808201516110df6080850182610fc4565b5060a08201516110f260a085018261110b565b5060c082015161110560c085018261110b565b50505050565b611114816113d4565b82525050565b611123816113d4565b82525050565b600060208201905061113e6000830184610f48565b92915050565b60006060820190506111596000830186610f48565b6111666020830185610f48565b611173604083018461111a565b949350505050565b60006040820190506111906000830185610f48565b61119d602083018461111a565b9392505050565b600060208201905081810360008301526111be8184610f57565b905092915050565b60006020820190506111db6000830184610fd3565b92915050565b60006040820190506111f66000830185610fd3565b6112036020830184610f48565b9392505050565b6000602082019050818103600083015261122381610ff1565b9050919050565b6000602082019050818103600083015261124381611014565b9050919050565b6000602082019050818103600083015261126381611037565b9050919050565b600060208201905081810360008301526112838161105a565b9050919050565b600060208201905061129f600083018461111a565b92915050565b6000819050602082019050919050565b600081519050919050565b6000602082019050919050565b600082825260208201905092915050565b600082825260208201905092915050565b60006112fa826113d4565b9150611305836113d4565b9250827fffffffffffffffffffffffffffffffffffffffffffffffffffffffffffffffff0382111561133a576113396113f0565b5b828201905092915050565b6000611350826113d4565b915061135b836113d4565b92508282101561136e5761136d6113f0565b5b828203905092915050565b6000611384826113b4565b9050919050565b60008115159050919050565b6000819050919050565b60008190506113af82611518565b919050565b600073ffffffffffffffffffffffffffffffffffffffff82169050919050565b6000819050919050565b60006113e9826113a1565b9050919050565b7f4e487b7100000000000000000000000000000000000000000000000000000000600052601160045260246000fd5b7f4e487b7100000000000000000000000000000000000000000000000000000000600052602160045260246000fd5b7f4f776e61626c653a206e6577206f776e657220697320746865207a65726f206160008201527f6464726573730000000000000000000000000000000000000000000000000000602082015250565b7f546f6b656e20646f65736e277420657869737473000000000000000000000000600082015250565b7f4f776e61626c653a2063616c6c6572206973206e6f7420746865206f776e6572600082015250565b7f42616c616e6365206e6f742073756666696369656e7400000000000000000000600082015250565b600281106115295761152861141f565b5b50565b61153581611379565b811461154057600080fd5b50565b61154c8161138b565b811461155757600080fd5b50565b61156381611397565b811461156e57600080fd5b50565b6002811061157e57600080fd5b50565b61158a816113d4565b811461159557600080fd5b5056fea2646970667358221220463e6f515a038e71387984bf0ac53d61782e618ae08edbf21d79afbd30a0b2d064736f6c63430008010033",
  "immutableReferences": {},
  "source": "// SPDX-License-Identifier: MIT\npragma solidity >=0.4.22 <0.9.0;\npragma abicoder v2;\n\nimport \"./Wallet.sol\";\n\ncontract Dex is Wallet {\n\n  enum Side {\n    BUY,\n    SELL\n  }\n  struct Order {\n    uint id;\n    address trader;\n    bool buyOrder;\n    Side side;\n    bytes32 ticker;\n    uint amount;\n    uint price;\n\n  }\n\n  mapping(bytes32 => mapping(uint => Order[])) orderBook;\n\n  constructor() public {\n  }\n\n  function getOrderBook(bytes32 ticker, Side side) view public returns(Order[] memory) {\n      return orderBook[ticker][uint(side)];\n  }\n\n\n  // function createLimitOrder(){\n\n  // }\n}\n",
  "sourcePath": "/home/fribas/solidity/truffle/dex/contracts/Dex.sol",
  "compiler": {
    "name": "solc",
    "version": "0.8.1+commit.df193b15.Emscripten.clang"
  },
  "schemaVersion": "3.4.1",
  "updatedAt": "2021-10-01T10:59:29.283Z",
  "networkType": "ethereum",
  "devdoc": {
    "kind": "dev",
    "methods": {
      "owner()": {
        "details": "Returns the address of the current owner."
      },
      "renounceOwnership()": {
        "details": "Leaves the contract without owner. It will not be possible to call `onlyOwner` functions anymore. Can only be called by the current owner. NOTE: Renouncing ownership will leave the contract without an owner, thereby removing any functionality that is only available to the owner."
      },
      "transferOwnership(address)": {
        "details": "Transfers ownership of the contract to a new account (`newOwner`). Can only be called by the current owner."
      }
    },
    "version": 1
  },
  "userdoc": {
    "kind": "user",
    "methods": {},
    "version": 1
  }
}