{
  "contractName": "Dex",
  "abi": [
    {
      "inputs": [],
      "stateMutability": "nonpayable",
      "type": "constructor"
    },
    {
      "anonymous": false,
      "inputs": [
        {
          "indexed": true,
          "internalType": "address",
          "name": "previousOwner",
          "type": "address"
        },
        {
          "indexed": true,
          "internalType": "address",
          "name": "newOwner",
          "type": "address"
        }
      ],
      "name": "OwnershipTransferred",
      "type": "event"
    },
    {
      "inputs": [
        {
          "internalType": "bytes32",
          "name": "ticker",
          "type": "bytes32"
        },
        {
          "internalType": "address",
          "name": "tokenAddress",
          "type": "address"
        }
      ],
      "name": "addToken",
      "outputs": [],
      "stateMutability": "nonpayable",
      "type": "function"
    },
    {
      "inputs": [
        {
          "internalType": "address",
          "name": "",
          "type": "address"
        },
        {
          "internalType": "bytes32",
          "name": "",
          "type": "bytes32"
        }
      ],
      "name": "balances",
      "outputs": [
        {
          "internalType": "uint256",
          "name": "",
          "type": "uint256"
        }
      ],
      "stateMutability": "view",
      "type": "function"
    },
    {
      "inputs": [
        {
          "internalType": "uint256",
          "name": "amount",
          "type": "uint256"
        },
        {
          "internalType": "bytes32",
          "name": "ticker",
          "type": "bytes32"
        }
      ],
      "name": "deposit",
      "outputs": [],
      "stateMutability": "nonpayable",
      "type": "function"
    },
    {
      "inputs": [],
      "name": "depositEth",
      "outputs": [],
      "stateMutability": "payable",
      "type": "function"
    },
    {
      "inputs": [
        {
          "internalType": "bytes32",
          "name": "",
          "type": "bytes32"
        },
        {
          "internalType": "uint256",
          "name": "",
          "type": "uint256"
        },
        {
          "internalType": "uint256",
          "name": "",
          "type": "uint256"
        }
      ],
      "name": "orderBook",
      "outputs": [
        {
          "internalType": "uint256",
          "name": "id",
          "type": "uint256"
        },
        {
          "internalType": "address",
          "name": "trader",
          "type": "address"
        },
        {
          "internalType": "bool",
          "name": "buyOrder",
          "type": "bool"
        },
        {
          "internalType": "enum Dex.Side",
          "name": "side",
          "type": "uint8"
        },
        {
          "internalType": "bytes32",
          "name": "ticker",
          "type": "bytes32"
        },
        {
          "internalType": "uint256",
          "name": "amount",
          "type": "uint256"
        },
        {
          "internalType": "uint256",
          "name": "price",
          "type": "uint256"
        }
      ],
      "stateMutability": "view",
      "type": "function"
    },
    {
      "inputs": [],
      "name": "owner",
      "outputs": [
        {
          "internalType": "address",
          "name": "",
          "type": "address"
        }
      ],
      "stateMutability": "view",
      "type": "function"
    },
    {
      "inputs": [],
      "name": "renounceOwnership",
      "outputs": [],
      "stateMutability": "nonpayable",
      "type": "function"
    },
    {
      "inputs": [
        {
          "internalType": "uint256",
          "name": "",
          "type": "uint256"
        }
      ],
      "name": "tokenList",
      "outputs": [
        {
          "internalType": "bytes32",
          "name": "",
          "type": "bytes32"
        }
      ],
      "stateMutability": "view",
      "type": "function"
    },
    {
      "inputs": [
        {
          "internalType": "bytes32",
          "name": "",
          "type": "bytes32"
        }
      ],
      "name": "tokenMapping",
      "outputs": [
        {
          "internalType": "bytes32",
          "name": "ticker",
          "type": "bytes32"
        },
        {
          "internalType": "address",
          "name": "tokenAddress",
          "type": "address"
        }
      ],
      "stateMutability": "view",
      "type": "function"
    },
    {
      "inputs": [
        {
          "internalType": "address",
          "name": "newOwner",
          "type": "address"
        }
      ],
      "name": "transferOwnership",
      "outputs": [],
      "stateMutability": "nonpayable",
      "type": "function"
    },
    {
      "inputs": [
        {
          "internalType": "uint256",
          "name": "amount",
          "type": "uint256"
        },
        {
          "internalType": "bytes32",
          "name": "ticker",
          "type": "bytes32"
        }
      ],
      "name": "withdraw",
      "outputs": [],
      "stateMutability": "nonpayable",
      "type": "function"
    },
    {
      "inputs": [
        {
          "internalType": "bytes32",
          "name": "ticker",
          "type": "bytes32"
        },
        {
          "internalType": "enum Dex.Side",
          "name": "side",
          "type": "uint8"
        }
      ],
      "name": "getOrderBook",
      "outputs": [
        {
          "components": [
            {
              "internalType": "uint256",
              "name": "id",
              "type": "uint256"
            },
            {
              "internalType": "address",
              "name": "trader",
              "type": "address"
            },
            {
              "internalType": "bool",
              "name": "buyOrder",
              "type": "bool"
            },
            {
              "internalType": "enum Dex.Side",
              "name": "side",
              "type": "uint8"
            },
            {
              "internalType": "bytes32",
              "name": "ticker",
              "type": "bytes32"
            },
            {
              "internalType": "uint256",
              "name": "amount",
              "type": "uint256"
            },
            {
              "internalType": "uint256",
              "name": "price",
              "type": "uint256"
            }
          ],
          "internalType": "struct Dex.Order[]",
          "name": "",
          "type": "tuple[]"
        }
      ],
      "stateMutability": "view",
      "type": "function"
    },
    {
      "inputs": [
        {
          "internalType": "enum Dex.Side",
          "name": "side",
          "type": "uint8"
        },
        {
          "internalType": "bytes32",
          "name": "ticker",
          "type": "bytes32"
        },
        {
          "internalType": "uint256",
          "name": "amount",
          "type": "uint256"
        },
        {
          "internalType": "uint256",
          "name": "price",
          "type": "uint256"
        }
      ],
      "name": "createLimitOrder",
      "outputs": [],
      "stateMutability": "nonpayable",
      "type": "function"
    }
  ],
  "bytecode": "0x608060405234801561001057600080fd5b5061002d61002261003260201b60201c565b61003a60201b60201c565b6100fe565b600033905090565b60008060009054906101000a900473ffffffffffffffffffffffffffffffffffffffff169050816000806101000a81548173ffffffffffffffffffffffffffffffffffffffff021916908373ffffffffffffffffffffffffffffffffffffffff1602179055508173ffffffffffffffffffffffffffffffffffffffff168173ffffffffffffffffffffffffffffffffffffffff167f8be0079c531659141344cd1fd0a4f28419497f9722a3daafe3b4186f6b6457e060405160405180910390a35050565b611de78061010d6000396000f3fe6080604052600436106100c25760003560e01c80638da5cb5b1161007f578063a8d2021a11610059578063a8d2021a14610260578063ba58ea6814610289578063c9630cb0146102c6578063f2fde38b146102ef576100c2565b80638da5cb5b146101cf5780639776aacf146101fa5780639ead722214610223576100c2565b80630bb431b6146100c75780631f14df691461010a578063439370b114610147578063667cb4ba146101515780636f3b62f91461018f578063715018a6146101b8575b600080fd5b3480156100d357600080fd5b506100ee60048036038101906100e99190611464565b610318565b60405161010197969594939291906119a3565b60405180910390f35b34801561011657600080fd5b50610131600480360381019061012c919061135e565b6103be565b60405161013e9190611988565b60405180910390f35b61014f6103e3565b005b34801561015d57600080fd5b50610178600480360381019061017391906113c3565b6104dc565b60405161018692919061189f565b60405180910390f35b34801561019b57600080fd5b506101b660048036038101906101b191906114b3565b610520565b005b3480156101c457600080fd5b506101cd6107f7565b005b3480156101db57600080fd5b506101e461087f565b6040516101f191906117e7565b60405180910390f35b34801561020657600080fd5b50610221600480360381019061021c91906113ec565b6108a8565b005b34801561022f57600080fd5b5061024a60048036038101906102459190611516565b6109e3565b6040516102579190611884565b60405180910390f35b34801561026c57600080fd5b506102876004803603810190610282919061153f565b610a07565b005b34801561029557600080fd5b506102b060048036038101906102ab9190611428565b610cc1565b6040516102bd9190611862565b60405180910390f35b3480156102d257600080fd5b506102ed60048036038101906102e8919061153f565b610e9d565b005b3480156102fb57600080fd5b5061031660048036038101906103119190611335565b6110c6565b005b6004602052826000526040600020602052816000526040600020818154811061034057600080fd5b906000526020600020906005020160009250925050508060000154908060010160009054906101000a900473ffffffffffffffffffffffffffffffffffffffff16908060010160149054906101000a900460ff16908060010160159054906101000a900460ff16908060020154908060030154908060040154905087565b6001602052816000526040600020602052806000526040600020600091509150505481565b61046634600160003373ffffffffffffffffffffffffffffffffffffffff1673ffffffffffffffffffffffffffffffffffffffff16815260200190815260200160002060007f45544800000000000000000000000000000000000000000000000000000000008152602001908152602001600020546111be90919063ffffffff16565b600160003373ffffffffffffffffffffffffffffffffffffffff1673ffffffffffffffffffffffffffffffffffffffff16815260200190815260200160002060007f4554480000000000000000000000000000000000000000000000000000000000815260200190815260200160002081905550565b60036020528060005260406000206000915090508060000154908060010160009054906101000a900473ffffffffffffffffffffffffffffffffffffffff16905082565b6000600181111561055a577f4e487b7100000000000000000000000000000000000000000000000000000000600052602160045260246000fd5b846001811115610593577f4e487b7100000000000000000000000000000000000000000000000000000000600052602160045260246000fd5b1415610663576105ac81836111d490919063ffffffff16565b600160003373ffffffffffffffffffffffffffffffffffffffff1673ffffffffffffffffffffffffffffffffffffffff16815260200190815260200160002060007f4554480000000000000000000000000000000000000000000000000000000000815260200190815260200160002054101561065e576040517f08c379a000000000000000000000000000000000000000000000000000000000815260040161065590611928565b60405180910390fd5b610790565b60018081111561069c577f4e487b7100000000000000000000000000000000000000000000000000000000600052602160045260246000fd5b8460018111156106d5577f4e487b7100000000000000000000000000000000000000000000000000000000600052602160045260246000fd5b141561078f5781600160003373ffffffffffffffffffffffffffffffffffffffff1673ffffffffffffffffffffffffffffffffffffffff16815260200190815260200160002060007f4554480000000000000000000000000000000000000000000000000000000000815260200190815260200160002054101561078e576040517f08c379a0000000000000000000000000000000000000000000000000000000008152600401610785906118e8565b60405180910390fd5b5b5b60006004600085815260200190815260200160002060008660018111156107e0577f4e487b7100000000000000000000000000000000000000000000000000000000600052602160045260246000fd5b815260200190815260200160002090505050505050565b6107ff6111ea565b73ffffffffffffffffffffffffffffffffffffffff1661081d61087f565b73ffffffffffffffffffffffffffffffffffffffff1614610873576040517f08c379a000000000000000000000000000000000000000000000000000000000815260040161086a90611948565b60405180910390fd5b61087d60006111f2565b565b60008060009054906101000a900473ffffffffffffffffffffffffffffffffffffffff16905090565b6108b06111ea565b73ffffffffffffffffffffffffffffffffffffffff166108ce61087f565b73ffffffffffffffffffffffffffffffffffffffff1614610924576040517f08c379a000000000000000000000000000000000000000000000000000000000815260040161091b90611948565b60405180910390fd5b60405180604001604052808381526020018273ffffffffffffffffffffffffffffffffffffffff16815250600360008481526020019081526020016000206000820151816000015560208201518160010160006101000a81548173ffffffffffffffffffffffffffffffffffffffff021916908373ffffffffffffffffffffffffffffffffffffffff16021790555090505060028290806001815401808255809150506001900390600052602060002001600090919091909150555050565b600281815481106109f357600080fd5b906000526020600020016000915090505481565b80600073ffffffffffffffffffffffffffffffffffffffff166003600083815260200190815260200160002060010160009054906101000a900473ffffffffffffffffffffffffffffffffffffffff1673ffffffffffffffffffffffffffffffffffffffff161415610aae576040517f08c379a0000000000000000000000000000000000000000000000000000000008152600401610aa590611908565b60405180910390fd5b82600160003373ffffffffffffffffffffffffffffffffffffffff1673ffffffffffffffffffffffffffffffffffffffff1681526020019081526020016000206000848152602001908152602001600020541015610b41576040517f08c379a0000000000000000000000000000000000000000000000000000000008152600401610b3890611968565b60405180910390fd5b610ba483600160003373ffffffffffffffffffffffffffffffffffffffff1673ffffffffffffffffffffffffffffffffffffffff1681526020019081526020016000206000858152602001908152602001600020546112b690919063ffffffff16565b600160003373ffffffffffffffffffffffffffffffffffffffff1673ffffffffffffffffffffffffffffffffffffffff1681526020019081526020016000206000848152602001908152602001600020819055506003600083815260200190815260200160002060010160009054906101000a900473ffffffffffffffffffffffffffffffffffffffff1673ffffffffffffffffffffffffffffffffffffffff1663a9059cbb33856040518363ffffffff1660e01b8152600401610c69929190611839565b602060405180830381600087803b158015610c8357600080fd5b505af1158015610c97573d6000803e3d6000fd5b505050506040513d601f19601f82011682018060405250810190610cbb919061139a565b50505050565b6060600460008481526020019081526020016000206000836001811115610d11577f4e487b7100000000000000000000000000000000000000000000000000000000600052602160045260246000fd5b8152602001908152602001600020805480602002602001604051908101604052809291908181526020016000905b82821015610e9157838290600052602060002090600502016040518060e0016040529081600082015481526020016001820160009054906101000a900473ffffffffffffffffffffffffffffffffffffffff1673ffffffffffffffffffffffffffffffffffffffff1673ffffffffffffffffffffffffffffffffffffffff1681526020016001820160149054906101000a900460ff161515151581526020016001820160159054906101000a900460ff166001811115610e28577f4e487b7100000000000000000000000000000000000000000000000000000000600052602160045260246000fd5b6001811115610e60577f4e487b7100000000000000000000000000000000000000000000000000000000600052602160045260246000fd5b8152602001600282015481526020016003820154815260200160048201548152505081526020019060010190610d3f565b50505050905092915050565b80600073ffffffffffffffffffffffffffffffffffffffff166003600083815260200190815260200160002060010160009054906101000a900473ffffffffffffffffffffffffffffffffffffffff1673ffffffffffffffffffffffffffffffffffffffff161415610f44576040517f08c379a0000000000000000000000000000000000000000000000000000000008152600401610f3b90611908565b60405180910390fd5b6003600083815260200190815260200160002060010160009054906101000a900473ffffffffffffffffffffffffffffffffffffffff1673ffffffffffffffffffffffffffffffffffffffff166323b872dd3330866040518463ffffffff1660e01b8152600401610fb793929190611802565b602060405180830381600087803b158015610fd157600080fd5b505af1158015610fe5573d6000803e3d6000fd5b505050506040513d601f19601f82011682018060405250810190611009919061139a565b5061106d83600160003373ffffffffffffffffffffffffffffffffffffffff1673ffffffffffffffffffffffffffffffffffffffff1681526020019081526020016000206000858152602001908152602001600020546111be90919063ffffffff16565b600160003373ffffffffffffffffffffffffffffffffffffffff1673ffffffffffffffffffffffffffffffffffffffff168152602001908152602001600020600084815260200190815260200160002081905550505050565b6110ce6111ea565b73ffffffffffffffffffffffffffffffffffffffff166110ec61087f565b73ffffffffffffffffffffffffffffffffffffffff1614611142576040517f08c379a000000000000000000000000000000000000000000000000000000000815260040161113990611948565b60405180910390fd5b600073ffffffffffffffffffffffffffffffffffffffff168173ffffffffffffffffffffffffffffffffffffffff1614156111b2576040517f08c379a00000000000000000000000000000000000000000000000000000000081526004016111a9906118c8565b60405180910390fd5b6111bb816111f2565b50565b600081836111cc9190611a5c565b905092915050565b600081836111e29190611ab2565b905092915050565b600033905090565b60008060009054906101000a900473ffffffffffffffffffffffffffffffffffffffff169050816000806101000a81548173ffffffffffffffffffffffffffffffffffffffff021916908373ffffffffffffffffffffffffffffffffffffffff1602179055508173ffffffffffffffffffffffffffffffffffffffff168173ffffffffffffffffffffffffffffffffffffffff167f8be0079c531659141344cd1fd0a4f28419497f9722a3daafe3b4186f6b6457e060405160405180910390a35050565b600081836112c49190611b0c565b905092915050565b6000813590506112db81611d45565b92915050565b6000815190506112f081611d5c565b92915050565b60008135905061130581611d73565b92915050565b60008135905061131a81611d8a565b92915050565b60008135905061132f81611d9a565b92915050565b60006020828403121561134757600080fd5b6000611355848285016112cc565b91505092915050565b6000806040838503121561137157600080fd5b600061137f858286016112cc565b9250506020611390858286016112f6565b9150509250929050565b6000602082840312156113ac57600080fd5b60006113ba848285016112e1565b91505092915050565b6000602082840312156113d557600080fd5b60006113e3848285016112f6565b91505092915050565b600080604083850312156113ff57600080fd5b600061140d858286016112f6565b925050602061141e858286016112cc565b9150509250929050565b6000806040838503121561143b57600080fd5b6000611449858286016112f6565b925050602061145a8582860161130b565b9150509250929050565b60008060006060848603121561147957600080fd5b6000611487868287016112f6565b935050602061149886828701611320565b92505060406114a986828701611320565b9150509250925092565b600080600080608085870312156114c957600080fd5b60006114d78782880161130b565b94505060206114e8878288016112f6565b93505060406114f987828801611320565b925050606061150a87828801611320565b91505092959194509250565b60006020828403121561152857600080fd5b600061153684828501611320565b91505092915050565b6000806040838503121561155257600080fd5b600061156085828601611320565b9250506020611571858286016112f6565b9150509250929050565b6000611587838361173b565b60e08301905092915050565b61159c81611b40565b82525050565b6115ab81611b40565b82525050565b60006115bc82611a22565b6115c68185611a3a565b93506115d183611a12565b8060005b838110156116025781516115e9888261157b565b97506115f483611a2d565b9250506001810190506115d5565b5085935050505092915050565b61161881611b52565b82525050565b61162781611b52565b82525050565b61163681611b5e565b82525050565b61164581611b5e565b82525050565b61165481611ba5565b82525050565b61166381611ba5565b82525050565b6000611676602683611a4b565b915061168182611c15565b604082019050919050565b6000611699601683611a4b565b91506116a482611c64565b602082019050919050565b60006116bc601483611a4b565b91506116c782611c8d565b602082019050919050565b60006116df600e83611a4b565b91506116ea82611cb6565b602082019050919050565b6000611702602083611a4b565b915061170d82611cdf565b602082019050919050565b6000611725601683611a4b565b915061173082611d08565b602082019050919050565b60e08201600082015161175160008501826117c9565b5060208201516117646020850182611593565b506040820151611777604085018261160f565b50606082015161178a606085018261164b565b50608082015161179d608085018261162d565b5060a08201516117b060a08501826117c9565b5060c08201516117c360c08501826117c9565b50505050565b6117d281611b9b565b82525050565b6117e181611b9b565b82525050565b60006020820190506117fc60008301846115a2565b92915050565b600060608201905061181760008301866115a2565b61182460208301856115a2565b61183160408301846117d8565b949350505050565b600060408201905061184e60008301856115a2565b61185b60208301846117d8565b9392505050565b6000602082019050818103600083015261187c81846115b1565b905092915050565b6000602082019050611899600083018461163c565b92915050565b60006040820190506118b4600083018561163c565b6118c160208301846115a2565b9392505050565b600060208201905081810360008301526118e181611669565b9050919050565b600060208201905081810360008301526119018161168c565b9050919050565b60006020820190508181036000830152611921816116af565b9050919050565b60006020820190508181036000830152611941816116d2565b9050919050565b60006020820190508181036000830152611961816116f5565b9050919050565b6000602082019050818103600083015261198181611718565b9050919050565b600060208201905061199d60008301846117d8565b92915050565b600060e0820190506119b8600083018a6117d8565b6119c560208301896115a2565b6119d2604083018861161e565b6119df606083018761165a565b6119ec608083018661163c565b6119f960a08301856117d8565b611a0660c08301846117d8565b98975050505050505050565b6000819050602082019050919050565b600081519050919050565b6000602082019050919050565b600082825260208201905092915050565b600082825260208201905092915050565b6000611a6782611b9b565b9150611a7283611b9b565b9250827fffffffffffffffffffffffffffffffffffffffffffffffffffffffffffffffff03821115611aa757611aa6611bb7565b5b828201905092915050565b6000611abd82611b9b565b9150611ac883611b9b565b9250817fffffffffffffffffffffffffffffffffffffffffffffffffffffffffffffffff0483118215151615611b0157611b00611bb7565b5b828202905092915050565b6000611b1782611b9b565b9150611b2283611b9b565b925082821015611b3557611b34611bb7565b5b828203905092915050565b6000611b4b82611b7b565b9050919050565b60008115159050919050565b6000819050919050565b6000819050611b7682611d31565b919050565b600073ffffffffffffffffffffffffffffffffffffffff82169050919050565b6000819050919050565b6000611bb082611b68565b9050919050565b7f4e487b7100000000000000000000000000000000000000000000000000000000600052601160045260246000fd5b7f4e487b7100000000000000000000000000000000000000000000000000000000600052602160045260246000fd5b7f4f776e61626c653a206e6577206f776e657220697320746865207a65726f206160008201527f6464726573730000000000000000000000000000000000000000000000000000602082015250565b7f4e6f7420656e6f7567682045544820746f2073656c6c00000000000000000000600082015250565b7f546f6b656e20646f65736e277420657869737473000000000000000000000000600082015250565b7f4e6f7420656e6f75676820455448000000000000000000000000000000000000600082015250565b7f4f776e61626c653a2063616c6c6572206973206e6f7420746865206f776e6572600082015250565b7f42616c616e6365206e6f742073756666696369656e7400000000000000000000600082015250565b60028110611d4257611d41611be6565b5b50565b611d4e81611b40565b8114611d5957600080fd5b50565b611d6581611b52565b8114611d7057600080fd5b50565b611d7c81611b5e565b8114611d8757600080fd5b50565b60028110611d9757600080fd5b50565b611da381611b9b565b8114611dae57600080fd5b5056fea26469706673582212202ef61d25fb8255030b816a6a870106bb8710630223bb6b2df2a23dbc232d732464736f6c63430008010033",
  "immutableReferences": {},
  "source": "// SPDX-License-Identifier: MIT\npragma solidity >=0.4.22 <0.9.0;\npragma abicoder v2;\n\nimport \"./Wallet.sol\";\n\ncontract Dex is Wallet {\n  using SafeMath for uint256;\n  enum Side {\n    BUY,\n    SELL\n  }\n  struct Order {\n    uint id;\n    address trader;\n    bool buyOrder;\n    Side side;\n    bytes32 ticker;\n    uint amount;\n    uint price;\n\n  }\n\n  mapping(bytes32 => mapping(uint => Order[])) public orderBook;\n\n  constructor() public {\n  }\n\n  function getOrderBook(bytes32 ticker, Side side) view public returns(Order[] memory) {\n      return orderBook[ticker][uint(side)];\n  }\n\n\n  function createLimitOrder(Side side, bytes32 ticker, uint amount, uint price) public{\n    if(side == Side.BUY){\n      require(balances[msg.sender][\"ETH\"] >= amount.mul(price), \"Not enough ETH\");\n\n    }\n    else  if(side == Side.SELL){\n      require(balances[msg.sender][\"ETH\"] >= amount, \"Not enough ETH to sell\");\n\n    }\n\n    //Make a reference to an orderbook that is stored in the contract.\n    Order[] storage orders = orderBook[ticker][uint(side)];\n  }\n}\n",
  "sourcePath": "/home/fribas/solidity/truffle/dex/contracts/Dex.sol",
  "compiler": {
    "name": "solc",
    "version": "0.8.1+commit.df193b15.Emscripten.clang"
  },
  "schemaVersion": "3.4.1",
  "updatedAt": "2021-10-18T01:33:34.306Z",
  "devdoc": {
    "kind": "dev",
    "methods": {
      "owner()": {
        "details": "Returns the address of the current owner."
      },
      "renounceOwnership()": {
        "details": "Leaves the contract without owner. It will not be possible to call `onlyOwner` functions anymore. Can only be called by the current owner. NOTE: Renouncing ownership will leave the contract without an owner, thereby removing any functionality that is only available to the owner."
      },
      "transferOwnership(address)": {
        "details": "Transfers ownership of the contract to a new account (`newOwner`). Can only be called by the current owner."
      }
    },
    "version": 1
  },
  "userdoc": {
    "kind": "user",
    "methods": {},
    "version": 1
  }
}