{
  "contractName": "Wallet",
  "abi": [
    {
      "inputs": [],
      "stateMutability": "nonpayable",
      "type": "constructor"
    },
    {
      "anonymous": false,
      "inputs": [
        {
          "indexed": true,
          "internalType": "address",
          "name": "previousOwner",
          "type": "address"
        },
        {
          "indexed": true,
          "internalType": "address",
          "name": "newOwner",
          "type": "address"
        }
      ],
      "name": "OwnershipTransferred",
      "type": "event"
    },
    {
      "inputs": [
        {
          "internalType": "address",
          "name": "",
          "type": "address"
        },
        {
          "internalType": "bytes32",
          "name": "",
          "type": "bytes32"
        }
      ],
      "name": "balances",
      "outputs": [
        {
          "internalType": "uint256",
          "name": "",
          "type": "uint256"
        }
      ],
      "stateMutability": "view",
      "type": "function"
    },
    {
      "inputs": [],
      "name": "owner",
      "outputs": [
        {
          "internalType": "address",
          "name": "",
          "type": "address"
        }
      ],
      "stateMutability": "view",
      "type": "function"
    },
    {
      "inputs": [],
      "name": "renounceOwnership",
      "outputs": [],
      "stateMutability": "nonpayable",
      "type": "function"
    },
    {
      "inputs": [
        {
          "internalType": "uint256",
          "name": "",
          "type": "uint256"
        }
      ],
      "name": "tokenList",
      "outputs": [
        {
          "internalType": "bytes32",
          "name": "",
          "type": "bytes32"
        }
      ],
      "stateMutability": "view",
      "type": "function"
    },
    {
      "inputs": [
        {
          "internalType": "bytes32",
          "name": "",
          "type": "bytes32"
        }
      ],
      "name": "tokenMapping",
      "outputs": [
        {
          "internalType": "bytes32",
          "name": "ticker",
          "type": "bytes32"
        },
        {
          "internalType": "address",
          "name": "tokenAddress",
          "type": "address"
        }
      ],
      "stateMutability": "view",
      "type": "function"
    },
    {
      "inputs": [
        {
          "internalType": "address",
          "name": "newOwner",
          "type": "address"
        }
      ],
      "name": "transferOwnership",
      "outputs": [],
      "stateMutability": "nonpayable",
      "type": "function"
    },
    {
      "inputs": [
        {
          "internalType": "bytes32",
          "name": "ticker",
          "type": "bytes32"
        },
        {
          "internalType": "address",
          "name": "tokenAddress",
          "type": "address"
        }
      ],
      "name": "addToken",
      "outputs": [],
      "stateMutability": "nonpayable",
      "type": "function"
    },
    {
      "inputs": [
        {
          "internalType": "uint256",
          "name": "amount",
          "type": "uint256"
        },
        {
          "internalType": "bytes32",
          "name": "ticker",
          "type": "bytes32"
        }
      ],
      "name": "deposit",
      "outputs": [],
      "stateMutability": "nonpayable",
      "type": "function"
    },
    {
      "inputs": [
        {
          "internalType": "uint256",
          "name": "amount",
          "type": "uint256"
        },
        {
          "internalType": "bytes32",
          "name": "ticker",
          "type": "bytes32"
        }
      ],
      "name": "withdraw",
      "outputs": [],
      "stateMutability": "nonpayable",
      "type": "function"
    }
  ],
  "bytecode": "0x608060405234801561001057600080fd5b5061002d61002261003260201b60201c565b61003a60201b60201c565b6100fe565b600033905090565b60008060009054906101000a900473ffffffffffffffffffffffffffffffffffffffff169050816000806101000a81548173ffffffffffffffffffffffffffffffffffffffff021916908373ffffffffffffffffffffffffffffffffffffffff1602179055508173ffffffffffffffffffffffffffffffffffffffff168173ffffffffffffffffffffffffffffffffffffffff167f8be0079c531659141344cd1fd0a4f28419497f9722a3daafe3b4186f6b6457e060405160405180910390a35050565b6111448061010d6000396000f3fe608060405234801561001057600080fd5b50600436106100935760003560e01c80639776aacf116100665780639776aacf146101215780639ead72221461013d578063a8d2021a1461016d578063c9630cb014610189578063f2fde38b146101a557610093565b80631f14df6914610098578063667cb4ba146100c8578063715018a6146100f95780638da5cb5b14610103575b600080fd5b6100b260048036038101906100ad9190610b8a565b6101c1565b6040516100bf9190610eb1565b60405180910390f35b6100e260048036038101906100dd9190610bef565b6101e6565b6040516100f0929190610e08565b60405180910390f35b61010161022a565b005b61010b6102b2565b6040516101189190610d72565b60405180910390f35b61013b60048036038101906101369190610c18565b6102db565b005b61015760048036038101906101529190610c54565b610416565b6040516101649190610ded565b60405180910390f35b61018760048036038101906101829190610c7d565b61043a565b005b6101a3600480360381019061019e9190610c7d565b6106f4565b005b6101bf60048036038101906101ba9190610b61565b61091d565b005b6001602052816000526040600020602052806000526040600020600091509150505481565b60036020528060005260406000206000915090508060000154908060010160009054906101000a900473ffffffffffffffffffffffffffffffffffffffff16905082565b610232610a15565b73ffffffffffffffffffffffffffffffffffffffff166102506102b2565b73ffffffffffffffffffffffffffffffffffffffff16146102a6576040517f08c379a000000000000000000000000000000000000000000000000000000000815260040161029d90610e71565b60405180910390fd5b6102b06000610a1d565b565b60008060009054906101000a900473ffffffffffffffffffffffffffffffffffffffff16905090565b6102e3610a15565b73ffffffffffffffffffffffffffffffffffffffff166103016102b2565b73ffffffffffffffffffffffffffffffffffffffff1614610357576040517f08c379a000000000000000000000000000000000000000000000000000000000815260040161034e90610e71565b60405180910390fd5b60405180604001604052808381526020018273ffffffffffffffffffffffffffffffffffffffff16815250600360008481526020019081526020016000206000820151816000015560208201518160010160006101000a81548173ffffffffffffffffffffffffffffffffffffffff021916908373ffffffffffffffffffffffffffffffffffffffff16021790555090505060028290806001815401808255809150506001900390600052602060002001600090919091909150555050565b6002818154811061042657600080fd5b906000526020600020016000915090505481565b80600073ffffffffffffffffffffffffffffffffffffffff166003600083815260200190815260200160002060010160009054906101000a900473ffffffffffffffffffffffffffffffffffffffff1673ffffffffffffffffffffffffffffffffffffffff1614156104e1576040517f08c379a00000000000000000000000000000000000000000000000000000000081526004016104d890610e51565b60405180910390fd5b82600160003373ffffffffffffffffffffffffffffffffffffffff1673ffffffffffffffffffffffffffffffffffffffff1681526020019081526020016000206000848152602001908152602001600020541015610574576040517f08c379a000000000000000000000000000000000000000000000000000000000815260040161056b90610e91565b60405180910390fd5b6105d783600160003373ffffffffffffffffffffffffffffffffffffffff1673ffffffffffffffffffffffffffffffffffffffff168152602001908152602001600020600085815260200190815260200160002054610ae190919063ffffffff16565b600160003373ffffffffffffffffffffffffffffffffffffffff1673ffffffffffffffffffffffffffffffffffffffff1681526020019081526020016000206000848152602001908152602001600020819055506003600083815260200190815260200160002060010160009054906101000a900473ffffffffffffffffffffffffffffffffffffffff1673ffffffffffffffffffffffffffffffffffffffff1663a9059cbb33856040518363ffffffff1660e01b815260040161069c929190610dc4565b602060405180830381600087803b1580156106b657600080fd5b505af11580156106ca573d6000803e3d6000fd5b505050506040513d601f19601f820116820180604052508101906106ee9190610bc6565b50505050565b80600073ffffffffffffffffffffffffffffffffffffffff166003600083815260200190815260200160002060010160009054906101000a900473ffffffffffffffffffffffffffffffffffffffff1673ffffffffffffffffffffffffffffffffffffffff16141561079b576040517f08c379a000000000000000000000000000000000000000000000000000000000815260040161079290610e51565b60405180910390fd5b6003600083815260200190815260200160002060010160009054906101000a900473ffffffffffffffffffffffffffffffffffffffff1673ffffffffffffffffffffffffffffffffffffffff166323b872dd3330866040518463ffffffff1660e01b815260040161080e93929190610d8d565b602060405180830381600087803b15801561082857600080fd5b505af115801561083c573d6000803e3d6000fd5b505050506040513d601f19601f820116820180604052508101906108609190610bc6565b506108c483600160003373ffffffffffffffffffffffffffffffffffffffff1673ffffffffffffffffffffffffffffffffffffffff168152602001908152602001600020600085815260200190815260200160002054610af790919063ffffffff16565b600160003373ffffffffffffffffffffffffffffffffffffffff1673ffffffffffffffffffffffffffffffffffffffff168152602001908152602001600020600084815260200190815260200160002081905550505050565b610925610a15565b73ffffffffffffffffffffffffffffffffffffffff166109436102b2565b73ffffffffffffffffffffffffffffffffffffffff1614610999576040517f08c379a000000000000000000000000000000000000000000000000000000000815260040161099090610e71565b60405180910390fd5b600073ffffffffffffffffffffffffffffffffffffffff168173ffffffffffffffffffffffffffffffffffffffff161415610a09576040517f08c379a0000000000000000000000000000000000000000000000000000000008152600401610a0090610e31565b60405180910390fd5b610a1281610a1d565b50565b600033905090565b60008060009054906101000a900473ffffffffffffffffffffffffffffffffffffffff169050816000806101000a81548173ffffffffffffffffffffffffffffffffffffffff021916908373ffffffffffffffffffffffffffffffffffffffff1602179055508173ffffffffffffffffffffffffffffffffffffffff168173ffffffffffffffffffffffffffffffffffffffff167f8be0079c531659141344cd1fd0a4f28419497f9722a3daafe3b4186f6b6457e060405160405180910390a35050565b60008183610aef9190610f33565b905092915050565b60008183610b059190610edd565b905092915050565b600081359050610b1c816110b2565b92915050565b600081519050610b31816110c9565b92915050565b600081359050610b46816110e0565b92915050565b600081359050610b5b816110f7565b92915050565b600060208284031215610b7357600080fd5b6000610b8184828501610b0d565b91505092915050565b60008060408385031215610b9d57600080fd5b6000610bab85828601610b0d565b9250506020610bbc85828601610b37565b9150509250929050565b600060208284031215610bd857600080fd5b6000610be684828501610b22565b91505092915050565b600060208284031215610c0157600080fd5b6000610c0f84828501610b37565b91505092915050565b60008060408385031215610c2b57600080fd5b6000610c3985828601610b37565b9250506020610c4a85828601610b0d565b9150509250929050565b600060208284031215610c6657600080fd5b6000610c7484828501610b4c565b91505092915050565b60008060408385031215610c9057600080fd5b6000610c9e85828601610b4c565b9250506020610caf85828601610b37565b9150509250929050565b610cc281610f67565b82525050565b610cd181610f85565b82525050565b6000610ce4602683610ecc565b9150610cef82610fe8565b604082019050919050565b6000610d07601483610ecc565b9150610d1282611037565b602082019050919050565b6000610d2a602083610ecc565b9150610d3582611060565b602082019050919050565b6000610d4d601683610ecc565b9150610d5882611089565b602082019050919050565b610d6c81610faf565b82525050565b6000602082019050610d876000830184610cb9565b92915050565b6000606082019050610da26000830186610cb9565b610daf6020830185610cb9565b610dbc6040830184610d63565b949350505050565b6000604082019050610dd96000830185610cb9565b610de66020830184610d63565b9392505050565b6000602082019050610e026000830184610cc8565b92915050565b6000604082019050610e1d6000830185610cc8565b610e2a6020830184610cb9565b9392505050565b60006020820190508181036000830152610e4a81610cd7565b9050919050565b60006020820190508181036000830152610e6a81610cfa565b9050919050565b60006020820190508181036000830152610e8a81610d1d565b9050919050565b60006020820190508181036000830152610eaa81610d40565b9050919050565b6000602082019050610ec66000830184610d63565b92915050565b600082825260208201905092915050565b6000610ee882610faf565b9150610ef383610faf565b9250827fffffffffffffffffffffffffffffffffffffffffffffffffffffffffffffffff03821115610f2857610f27610fb9565b5b828201905092915050565b6000610f3e82610faf565b9150610f4983610faf565b925082821015610f5c57610f5b610fb9565b5b828203905092915050565b6000610f7282610f8f565b9050919050565b60008115159050919050565b6000819050919050565b600073ffffffffffffffffffffffffffffffffffffffff82169050919050565b6000819050919050565b7f4e487b7100000000000000000000000000000000000000000000000000000000600052601160045260246000fd5b7f4f776e61626c653a206e6577206f776e657220697320746865207a65726f206160008201527f6464726573730000000000000000000000000000000000000000000000000000602082015250565b7f546f6b656e20646f65736e277420657869737473000000000000000000000000600082015250565b7f4f776e61626c653a2063616c6c6572206973206e6f7420746865206f776e6572600082015250565b7f42616c616e6365206e6f742073756666696369656e7400000000000000000000600082015250565b6110bb81610f67565b81146110c657600080fd5b50565b6110d281610f79565b81146110dd57600080fd5b50565b6110e981610f85565b81146110f457600080fd5b50565b61110081610faf565b811461110b57600080fd5b5056fea2646970667358221220dd438c31cded2489c20cb6408436ed85a225f611d1750b1c0100e4b0ae89599464736f6c63430008010033",
  "immutableReferences": {},
  "source": "// SPDX-License-Identifier: MIT\npragma solidity >=0.4.22 <0.9.0;\n\nimport \"../node_modules/@openzeppelin/contracts/token/ERC20/IERC20.sol\";\nimport \"../node_modules/@openzeppelin/contracts/utils/math/SafeMath.sol\";\nimport \"../node_modules/@openzeppelin/contracts/access/Ownable.sol\";\n\ncontract Wallet is Ownable {\n  using SafeMath for uint256;\n  //Balance of multiple tokens\n  // address to Token Symbol (ticker) to value\n  mapping(address => mapping(bytes32 => uint256)) public balances;\n  \n  struct Token {\n    bytes32 ticker;\n    address tokenAddress;\n  }\n\n  bytes32[] public tokenList; // index of tokens\n  mapping(bytes32 => Token) public tokenMapping;\n\n\n  modifier tokenExist(bytes32 ticker){\n     //if address == 0x000000 means that the ticker has not been add to the wallet.\n    require(tokenMapping[ticker].tokenAddress !=address(0), \"Token doesn't exists\");\n    _;\n  }\n  constructor() public {\n\n\n  }\n\n  function addToken(bytes32 ticker, address tokenAddress) onlyOwner external{\n    tokenMapping[ticker] = Token(ticker,tokenAddress);\n    tokenList.push(ticker);\n    \n  }\n\n  // require the allowance origin\n  function deposit(uint amount, bytes32 ticker) tokenExist(ticker) external {\n    IERC20(tokenMapping[ticker].tokenAddress).transferFrom(msg.sender, address(this), amount);\n    balances[msg.sender][ticker] =balances[msg.sender][ticker].add(amount);\n  }\n\n  function withdraw(uint amount, bytes32 ticker) tokenExist(ticker) external {\n           require(balances[msg.sender][ticker] >= amount,\"Balance not sufficient\");\n    //substract using safemath\n    balances[msg.sender][ticker] = balances[msg.sender][ticker].sub(amount); \n    IERC20(tokenMapping[ticker].tokenAddress).transfer(msg.sender, amount);\n    \n  }\n}\n",
  "sourcePath": "/home/fribas/solidity/truffle/dex/contracts/Wallet.sol",
  "compiler": {
    "name": "solc",
    "version": "0.8.1+commit.df193b15.Emscripten.clang"
  },
  "schemaVersion": "3.4.1",
  "updatedAt": "2021-09-29T18:47:22.763Z",
  "devdoc": {
    "kind": "dev",
    "methods": {
      "owner()": {
        "details": "Returns the address of the current owner."
      },
      "renounceOwnership()": {
        "details": "Leaves the contract without owner. It will not be possible to call `onlyOwner` functions anymore. Can only be called by the current owner. NOTE: Renouncing ownership will leave the contract without an owner, thereby removing any functionality that is only available to the owner."
      },
      "transferOwnership(address)": {
        "details": "Transfers ownership of the contract to a new account (`newOwner`). Can only be called by the current owner."
      }
    },
    "version": 1
  },
  "userdoc": {
    "kind": "user",
    "methods": {},
    "version": 1
  }
}