{
  "contractName": "Wallet",
  "abi": [
    {
      "inputs": [],
      "stateMutability": "nonpayable",
      "type": "constructor"
    },
    {
      "anonymous": false,
      "inputs": [
        {
          "indexed": true,
          "internalType": "address",
          "name": "previousOwner",
          "type": "address"
        },
        {
          "indexed": true,
          "internalType": "address",
          "name": "newOwner",
          "type": "address"
        }
      ],
      "name": "OwnershipTransferred",
      "type": "event"
    },
    {
      "inputs": [
        {
          "internalType": "address",
          "name": "",
          "type": "address"
        },
        {
          "internalType": "bytes32",
          "name": "",
          "type": "bytes32"
        }
      ],
      "name": "balances",
      "outputs": [
        {
          "internalType": "uint256",
          "name": "",
          "type": "uint256"
        }
      ],
      "stateMutability": "view",
      "type": "function"
    },
    {
      "inputs": [],
      "name": "owner",
      "outputs": [
        {
          "internalType": "address",
          "name": "",
          "type": "address"
        }
      ],
      "stateMutability": "view",
      "type": "function"
    },
    {
      "inputs": [],
      "name": "renounceOwnership",
      "outputs": [],
      "stateMutability": "nonpayable",
      "type": "function"
    },
    {
      "inputs": [
        {
          "internalType": "uint256",
          "name": "",
          "type": "uint256"
        }
      ],
      "name": "tokenList",
      "outputs": [
        {
          "internalType": "bytes32",
          "name": "",
          "type": "bytes32"
        }
      ],
      "stateMutability": "view",
      "type": "function"
    },
    {
      "inputs": [
        {
          "internalType": "bytes32",
          "name": "",
          "type": "bytes32"
        }
      ],
      "name": "tokenMapping",
      "outputs": [
        {
          "internalType": "bytes32",
          "name": "ticker",
          "type": "bytes32"
        },
        {
          "internalType": "address",
          "name": "tokenAddress",
          "type": "address"
        }
      ],
      "stateMutability": "view",
      "type": "function"
    },
    {
      "inputs": [
        {
          "internalType": "address",
          "name": "newOwner",
          "type": "address"
        }
      ],
      "name": "transferOwnership",
      "outputs": [],
      "stateMutability": "nonpayable",
      "type": "function"
    },
    {
      "inputs": [
        {
          "internalType": "bytes32",
          "name": "ticker",
          "type": "bytes32"
        },
        {
          "internalType": "address",
          "name": "tokenAddress",
          "type": "address"
        }
      ],
      "name": "addToken",
      "outputs": [],
      "stateMutability": "nonpayable",
      "type": "function"
    },
    {
      "inputs": [
        {
          "internalType": "uint256",
          "name": "amount",
          "type": "uint256"
        },
        {
          "internalType": "bytes32",
          "name": "ticker",
          "type": "bytes32"
        }
      ],
      "name": "deposit",
      "outputs": [],
      "stateMutability": "nonpayable",
      "type": "function"
    },
    {
      "inputs": [
        {
          "internalType": "uint256",
          "name": "amount",
          "type": "uint256"
        },
        {
          "internalType": "bytes32",
          "name": "ticker",
          "type": "bytes32"
        }
      ],
      "name": "withdraw",
      "outputs": [],
      "stateMutability": "nonpayable",
      "type": "function"
    },
    {
      "inputs": [],
      "name": "depositEth",
      "outputs": [],
      "stateMutability": "payable",
      "type": "function"
    }
  ],
  "bytecode": "0x608060405234801561001057600080fd5b5061002d61002261003260201b60201c565b61003a60201b60201c565b6100fe565b600033905090565b60008060009054906101000a900473ffffffffffffffffffffffffffffffffffffffff169050816000806101000a81548173ffffffffffffffffffffffffffffffffffffffff021916908373ffffffffffffffffffffffffffffffffffffffff1602179055508173ffffffffffffffffffffffffffffffffffffffff168173ffffffffffffffffffffffffffffffffffffffff167f8be0079c531659141344cd1fd0a4f28419497f9722a3daafe3b4186f6b6457e060405160405180910390a35050565b6112ba8061010d6000396000f3fe6080604052600436106100915760003560e01c80639776aacf116100595780639776aacf1461015d5780639ead722214610186578063a8d2021a146101c3578063c9630cb0146101ec578063f2fde38b1461021557610091565b80631f14df6914610096578063439370b1146100d3578063667cb4ba146100dd578063715018a61461011b5780638da5cb5b14610132575b600080fd5b3480156100a257600080fd5b506100bd60048036038101906100b89190610d00565b61023e565b6040516100ca9190611027565b60405180910390f35b6100db610263565b005b3480156100e957600080fd5b5061010460048036038101906100ff9190610d65565b61035c565b604051610112929190610f7e565b60405180910390f35b34801561012757600080fd5b506101306103a0565b005b34801561013e57600080fd5b50610147610428565b6040516101549190610ee8565b60405180910390f35b34801561016957600080fd5b50610184600480360381019061017f9190610d8e565b610451565b005b34801561019257600080fd5b506101ad60048036038101906101a89190610dca565b61058c565b6040516101ba9190610f63565b60405180910390f35b3480156101cf57600080fd5b506101ea60048036038101906101e59190610df3565b6105b0565b005b3480156101f857600080fd5b50610213600480360381019061020e9190610df3565b61086a565b005b34801561022157600080fd5b5061023c60048036038101906102379190610cd7565b610a93565b005b6001602052816000526040600020602052806000526040600020600091509150505481565b6102e634600160003373ffffffffffffffffffffffffffffffffffffffff1673ffffffffffffffffffffffffffffffffffffffff16815260200190815260200160002060007f4554480000000000000000000000000000000000000000000000000000000000815260200190815260200160002054610b8b90919063ffffffff16565b600160003373ffffffffffffffffffffffffffffffffffffffff1673ffffffffffffffffffffffffffffffffffffffff16815260200190815260200160002060007f4554480000000000000000000000000000000000000000000000000000000000815260200190815260200160002081905550565b60036020528060005260406000206000915090508060000154908060010160009054906101000a900473ffffffffffffffffffffffffffffffffffffffff16905082565b6103a8610ba1565b73ffffffffffffffffffffffffffffffffffffffff166103c6610428565b73ffffffffffffffffffffffffffffffffffffffff161461041c576040517f08c379a000000000000000000000000000000000000000000000000000000000815260040161041390610fe7565b60405180910390fd5b6104266000610ba9565b565b60008060009054906101000a900473ffffffffffffffffffffffffffffffffffffffff16905090565b610459610ba1565b73ffffffffffffffffffffffffffffffffffffffff16610477610428565b73ffffffffffffffffffffffffffffffffffffffff16146104cd576040517f08c379a00000000000000000000000000000000000000000000000000000000081526004016104c490610fe7565b60405180910390fd5b60405180604001604052808381526020018273ffffffffffffffffffffffffffffffffffffffff16815250600360008481526020019081526020016000206000820151816000015560208201518160010160006101000a81548173ffffffffffffffffffffffffffffffffffffffff021916908373ffffffffffffffffffffffffffffffffffffffff16021790555090505060028290806001815401808255809150506001900390600052602060002001600090919091909150555050565b6002818154811061059c57600080fd5b906000526020600020016000915090505481565b80600073ffffffffffffffffffffffffffffffffffffffff166003600083815260200190815260200160002060010160009054906101000a900473ffffffffffffffffffffffffffffffffffffffff1673ffffffffffffffffffffffffffffffffffffffff161415610657576040517f08c379a000000000000000000000000000000000000000000000000000000000815260040161064e90610fc7565b60405180910390fd5b82600160003373ffffffffffffffffffffffffffffffffffffffff1673ffffffffffffffffffffffffffffffffffffffff16815260200190815260200160002060008481526020019081526020016000205410156106ea576040517f08c379a00000000000000000000000000000000000000000000000000000000081526004016106e190611007565b60405180910390fd5b61074d83600160003373ffffffffffffffffffffffffffffffffffffffff1673ffffffffffffffffffffffffffffffffffffffff168152602001908152602001600020600085815260200190815260200160002054610c6d90919063ffffffff16565b600160003373ffffffffffffffffffffffffffffffffffffffff1673ffffffffffffffffffffffffffffffffffffffff1681526020019081526020016000206000848152602001908152602001600020819055506003600083815260200190815260200160002060010160009054906101000a900473ffffffffffffffffffffffffffffffffffffffff1673ffffffffffffffffffffffffffffffffffffffff1663a9059cbb33856040518363ffffffff1660e01b8152600401610812929190610f3a565b602060405180830381600087803b15801561082c57600080fd5b505af1158015610840573d6000803e3d6000fd5b505050506040513d601f19601f820116820180604052508101906108649190610d3c565b50505050565b80600073ffffffffffffffffffffffffffffffffffffffff166003600083815260200190815260200160002060010160009054906101000a900473ffffffffffffffffffffffffffffffffffffffff1673ffffffffffffffffffffffffffffffffffffffff161415610911576040517f08c379a000000000000000000000000000000000000000000000000000000000815260040161090890610fc7565b60405180910390fd5b6003600083815260200190815260200160002060010160009054906101000a900473ffffffffffffffffffffffffffffffffffffffff1673ffffffffffffffffffffffffffffffffffffffff166323b872dd3330866040518463ffffffff1660e01b815260040161098493929190610f03565b602060405180830381600087803b15801561099e57600080fd5b505af11580156109b2573d6000803e3d6000fd5b505050506040513d601f19601f820116820180604052508101906109d69190610d3c565b50610a3a83600160003373ffffffffffffffffffffffffffffffffffffffff1673ffffffffffffffffffffffffffffffffffffffff168152602001908152602001600020600085815260200190815260200160002054610b8b90919063ffffffff16565b600160003373ffffffffffffffffffffffffffffffffffffffff1673ffffffffffffffffffffffffffffffffffffffff168152602001908152602001600020600084815260200190815260200160002081905550505050565b610a9b610ba1565b73ffffffffffffffffffffffffffffffffffffffff16610ab9610428565b73ffffffffffffffffffffffffffffffffffffffff1614610b0f576040517f08c379a0000000000000000000000000000000000000000000000000000000008152600401610b0690610fe7565b60405180910390fd5b600073ffffffffffffffffffffffffffffffffffffffff168173ffffffffffffffffffffffffffffffffffffffff161415610b7f576040517f08c379a0000000000000000000000000000000000000000000000000000000008152600401610b7690610fa7565b60405180910390fd5b610b8881610ba9565b50565b60008183610b999190611053565b905092915050565b600033905090565b60008060009054906101000a900473ffffffffffffffffffffffffffffffffffffffff169050816000806101000a81548173ffffffffffffffffffffffffffffffffffffffff021916908373ffffffffffffffffffffffffffffffffffffffff1602179055508173ffffffffffffffffffffffffffffffffffffffff168173ffffffffffffffffffffffffffffffffffffffff167f8be0079c531659141344cd1fd0a4f28419497f9722a3daafe3b4186f6b6457e060405160405180910390a35050565b60008183610c7b91906110a9565b905092915050565b600081359050610c9281611228565b92915050565b600081519050610ca78161123f565b92915050565b600081359050610cbc81611256565b92915050565b600081359050610cd18161126d565b92915050565b600060208284031215610ce957600080fd5b6000610cf784828501610c83565b91505092915050565b60008060408385031215610d1357600080fd5b6000610d2185828601610c83565b9250506020610d3285828601610cad565b9150509250929050565b600060208284031215610d4e57600080fd5b6000610d5c84828501610c98565b91505092915050565b600060208284031215610d7757600080fd5b6000610d8584828501610cad565b91505092915050565b60008060408385031215610da157600080fd5b6000610daf85828601610cad565b9250506020610dc085828601610c83565b9150509250929050565b600060208284031215610ddc57600080fd5b6000610dea84828501610cc2565b91505092915050565b60008060408385031215610e0657600080fd5b6000610e1485828601610cc2565b9250506020610e2585828601610cad565b9150509250929050565b610e38816110dd565b82525050565b610e47816110fb565b82525050565b6000610e5a602683611042565b9150610e658261115e565b604082019050919050565b6000610e7d601483611042565b9150610e88826111ad565b602082019050919050565b6000610ea0602083611042565b9150610eab826111d6565b602082019050919050565b6000610ec3601683611042565b9150610ece826111ff565b602082019050919050565b610ee281611125565b82525050565b6000602082019050610efd6000830184610e2f565b92915050565b6000606082019050610f186000830186610e2f565b610f256020830185610e2f565b610f326040830184610ed9565b949350505050565b6000604082019050610f4f6000830185610e2f565b610f5c6020830184610ed9565b9392505050565b6000602082019050610f786000830184610e3e565b92915050565b6000604082019050610f936000830185610e3e565b610fa06020830184610e2f565b9392505050565b60006020820190508181036000830152610fc081610e4d565b9050919050565b60006020820190508181036000830152610fe081610e70565b9050919050565b6000602082019050818103600083015261100081610e93565b9050919050565b6000602082019050818103600083015261102081610eb6565b9050919050565b600060208201905061103c6000830184610ed9565b92915050565b600082825260208201905092915050565b600061105e82611125565b915061106983611125565b9250827fffffffffffffffffffffffffffffffffffffffffffffffffffffffffffffffff0382111561109e5761109d61112f565b5b828201905092915050565b60006110b482611125565b91506110bf83611125565b9250828210156110d2576110d161112f565b5b828203905092915050565b60006110e882611105565b9050919050565b60008115159050919050565b6000819050919050565b600073ffffffffffffffffffffffffffffffffffffffff82169050919050565b6000819050919050565b7f4e487b7100000000000000000000000000000000000000000000000000000000600052601160045260246000fd5b7f4f776e61626c653a206e6577206f776e657220697320746865207a65726f206160008201527f6464726573730000000000000000000000000000000000000000000000000000602082015250565b7f546f6b656e20646f65736e277420657869737473000000000000000000000000600082015250565b7f4f776e61626c653a2063616c6c6572206973206e6f7420746865206f776e6572600082015250565b7f42616c616e6365206e6f742073756666696369656e7400000000000000000000600082015250565b611231816110dd565b811461123c57600080fd5b50565b611248816110ef565b811461125357600080fd5b50565b61125f816110fb565b811461126a57600080fd5b50565b61127681611125565b811461128157600080fd5b5056fea264697066735822122001e291c6043451c58ddca3a4845941b9f8410281c4049966bf942cc214617ad664736f6c63430008010033",
  "immutableReferences": {},
  "source": "// SPDX-License-Identifier: MIT\npragma solidity >=0.4.22 <0.9.0;\n\nimport \"../node_modules/@openzeppelin/contracts/token/ERC20/IERC20.sol\";\nimport \"../node_modules/@openzeppelin/contracts/utils/math/SafeMath.sol\";\nimport \"../node_modules/@openzeppelin/contracts/access/Ownable.sol\";\n\ncontract Wallet is Ownable {\n  using SafeMath for uint256;\n  //Balance of multiple tokens\n  // address to Token Symbol (ticker) to value\n  mapping(address => mapping(bytes32 => uint256)) public balances;\n  \n  struct Token {\n    bytes32 ticker;\n    address tokenAddress;\n  }\n\n  bytes32[] public tokenList; // index of tokens\n  mapping(bytes32 => Token) public tokenMapping;\n\n\n  modifier tokenExist(bytes32 ticker){\n     //if address == 0x000000 means that the ticker has not been add to the wallet.\n    require(tokenMapping[ticker].tokenAddress !=address(0), \"Token doesn't exists\");\n    _;\n  }\n  constructor() public {\n\n\n  }\n\n  function addToken(bytes32 ticker, address tokenAddress) onlyOwner external{\n    tokenMapping[ticker] = Token(ticker,tokenAddress);\n    tokenList.push(ticker);\n    \n  }\n\n  // require the allowance origin\n  function deposit(uint amount, bytes32 ticker) tokenExist(ticker) external {\n    IERC20(tokenMapping[ticker].tokenAddress).transferFrom(msg.sender, address(this), amount);\n    balances[msg.sender][ticker] =balances[msg.sender][ticker].add(amount);\n  }\n\n  function withdraw(uint amount, bytes32 ticker) tokenExist(ticker) external {\n           require(balances[msg.sender][ticker] >= amount,\"Balance not sufficient\");\n    //substract using safemath\n    balances[msg.sender][ticker] = balances[msg.sender][ticker].sub(amount); \n    IERC20(tokenMapping[ticker].tokenAddress).transfer(msg.sender, amount);\n    \n  }\n  function depositEth() payable external {\n        balances[msg.sender][bytes32(\"ETH\")] = balances[msg.sender][bytes32(\"ETH\")].add(msg.value);\n    }\n}\n",
  "sourcePath": "/home/fribas/solidity/truffle/dex/contracts/Wallet.sol",
  "compiler": {
    "name": "solc",
    "version": "0.8.1+commit.df193b15.Emscripten.clang"
  },
  "schemaVersion": "3.4.1",
  "updatedAt": "2021-10-18T01:33:34.338Z",
  "devdoc": {
    "kind": "dev",
    "methods": {
      "owner()": {
        "details": "Returns the address of the current owner."
      },
      "renounceOwnership()": {
        "details": "Leaves the contract without owner. It will not be possible to call `onlyOwner` functions anymore. Can only be called by the current owner. NOTE: Renouncing ownership will leave the contract without an owner, thereby removing any functionality that is only available to the owner."
      },
      "transferOwnership(address)": {
        "details": "Transfers ownership of the contract to a new account (`newOwner`). Can only be called by the current owner."
      }
    },
    "version": 1
  },
  "userdoc": {
    "kind": "user",
    "methods": {},
    "version": 1
  }
}