{
  "contractName": "Wallet",
  "abi": [
    {
      "inputs": [],
      "stateMutability": "nonpayable",
      "type": "constructor"
    },
    {
      "inputs": [
        {
          "internalType": "address",
          "name": "",
          "type": "address"
        },
        {
          "internalType": "bytes32",
          "name": "",
          "type": "bytes32"
        }
      ],
      "name": "balances",
      "outputs": [
        {
          "internalType": "uint256",
          "name": "",
          "type": "uint256"
        }
      ],
      "stateMutability": "view",
      "type": "function"
    },
    {
      "inputs": [
        {
          "internalType": "uint256",
          "name": "",
          "type": "uint256"
        }
      ],
      "name": "tokenList",
      "outputs": [
        {
          "internalType": "bytes32",
          "name": "",
          "type": "bytes32"
        }
      ],
      "stateMutability": "view",
      "type": "function"
    },
    {
      "inputs": [
        {
          "internalType": "bytes32",
          "name": "",
          "type": "bytes32"
        }
      ],
      "name": "tokenMapping",
      "outputs": [
        {
          "internalType": "bytes32",
          "name": "ticker",
          "type": "bytes32"
        },
        {
          "internalType": "address",
          "name": "tokenAddress",
          "type": "address"
        }
      ],
      "stateMutability": "view",
      "type": "function"
    },
    {
      "inputs": [
        {
          "internalType": "bytes32",
          "name": "ticker",
          "type": "bytes32"
        },
        {
          "internalType": "address",
          "name": "tokenAddress",
          "type": "address"
        }
      ],
      "name": "addToken",
      "outputs": [],
      "stateMutability": "nonpayable",
      "type": "function"
    },
    {
      "inputs": [
        {
          "internalType": "uint256",
          "name": "amount",
          "type": "uint256"
        },
        {
          "internalType": "bytes32",
          "name": "ticker",
          "type": "bytes32"
        }
      ],
      "name": "deposit",
      "outputs": [],
      "stateMutability": "nonpayable",
      "type": "function"
    },
    {
      "inputs": [
        {
          "internalType": "uint256",
          "name": "amount",
          "type": "uint256"
        },
        {
          "internalType": "bytes32",
          "name": "ticker",
          "type": "bytes32"
        }
      ],
      "name": "withdraw",
      "outputs": [],
      "stateMutability": "nonpayable",
      "type": "function"
    }
  ],
  "bytecode": "0x608060405234801561001057600080fd5b50610c93806100206000396000f3fe608060405234801561001057600080fd5b50600436106100625760003560e01c80631f14df6914610067578063667cb4ba146100975780639776aacf146100c85780639ead7222146100e4578063a8d2021a14610114578063c9630cb014610130575b600080fd5b610081600480360381019061007c91906107f2565b61014c565b60405161008e9190610a78565b60405180910390f35b6100b160048036038101906100ac9190610857565b610171565b6040516100bf929190610a0f565b60405180910390f35b6100e260048036038101906100dd9190610880565b6101b5565b005b6100fe60048036038101906100f991906108bc565b610274565b60405161010b91906109f4565b60405180910390f35b61012e600480360381019061012991906108e5565b610298565b005b61014a600480360381019061014591906108e5565b61054d565b005b6000602052816000526040600020602052806000526040600020600091509150505481565b60026020528060005260406000206000915090508060000154908060010160009054906101000a900473ffffffffffffffffffffffffffffffffffffffff16905082565b60405180604001604052808381526020018273ffffffffffffffffffffffffffffffffffffffff16815250600260008481526020019081526020016000206000820151816000015560208201518160010160006101000a81548173ffffffffffffffffffffffffffffffffffffffff021916908373ffffffffffffffffffffffffffffffffffffffff16021790555090505060018290806001815401808255809150506001900390600052602060002001600090919091909150555050565b6001818154811061028457600080fd5b906000526020600020016000915090505481565b600073ffffffffffffffffffffffffffffffffffffffff166002600083815260200190815260200160002060010160009054906101000a900473ffffffffffffffffffffffffffffffffffffffff1673ffffffffffffffffffffffffffffffffffffffff16141561033e576040517f08c379a000000000000000000000000000000000000000000000000000000000815260040161033590610a38565b60405180910390fd5b816000803373ffffffffffffffffffffffffffffffffffffffff1673ffffffffffffffffffffffffffffffffffffffff16815260200190815260200160002060008381526020019081526020016000205410156103d0576040517f08c379a00000000000000000000000000000000000000000000000000000000081526004016103c790610a58565b60405180910390fd5b610432826000803373ffffffffffffffffffffffffffffffffffffffff1673ffffffffffffffffffffffffffffffffffffffff16815260200190815260200160002060008481526020019081526020016000205461077290919063ffffffff16565b6000803373ffffffffffffffffffffffffffffffffffffffff1673ffffffffffffffffffffffffffffffffffffffff1681526020019081526020016000206000838152602001908152602001600020819055506002600082815260200190815260200160002060010160009054906101000a900473ffffffffffffffffffffffffffffffffffffffff1673ffffffffffffffffffffffffffffffffffffffff1663a9059cbb33846040518363ffffffff1660e01b81526004016104f69291906109cb565b602060405180830381600087803b15801561051057600080fd5b505af1158015610524573d6000803e3d6000fd5b505050506040513d601f19601f82011682018060405250810190610548919061082e565b505050565b600073ffffffffffffffffffffffffffffffffffffffff166002600083815260200190815260200160002060010160009054906101000a900473ffffffffffffffffffffffffffffffffffffffff1673ffffffffffffffffffffffffffffffffffffffff1614156105f3576040517f08c379a00000000000000000000000000000000000000000000000000000000081526004016105ea90610a38565b60405180910390fd5b6002600082815260200190815260200160002060010160009054906101000a900473ffffffffffffffffffffffffffffffffffffffff1673ffffffffffffffffffffffffffffffffffffffff166323b872dd3330856040518463ffffffff1660e01b815260040161066693929190610994565b602060405180830381600087803b15801561068057600080fd5b505af1158015610694573d6000803e3d6000fd5b505050506040513d601f19601f820116820180604052508101906106b8919061082e565b5061071b826000803373ffffffffffffffffffffffffffffffffffffffff1673ffffffffffffffffffffffffffffffffffffffff16815260200190815260200160002060008481526020019081526020016000205461078890919063ffffffff16565b6000803373ffffffffffffffffffffffffffffffffffffffff1673ffffffffffffffffffffffffffffffffffffffff1681526020019081526020016000206000838152602001908152602001600020819055505050565b600081836107809190610afa565b905092915050565b600081836107969190610aa4565b905092915050565b6000813590506107ad81610c01565b92915050565b6000815190506107c281610c18565b92915050565b6000813590506107d781610c2f565b92915050565b6000813590506107ec81610c46565b92915050565b6000806040838503121561080557600080fd5b60006108138582860161079e565b9250506020610824858286016107c8565b9150509250929050565b60006020828403121561084057600080fd5b600061084e848285016107b3565b91505092915050565b60006020828403121561086957600080fd5b6000610877848285016107c8565b91505092915050565b6000806040838503121561089357600080fd5b60006108a1858286016107c8565b92505060206108b28582860161079e565b9150509250929050565b6000602082840312156108ce57600080fd5b60006108dc848285016107dd565b91505092915050565b600080604083850312156108f857600080fd5b6000610906858286016107dd565b9250506020610917858286016107c8565b9150509250929050565b61092a81610b2e565b82525050565b61093981610b4c565b82525050565b600061094c601483610a93565b915061095782610baf565b602082019050919050565b600061096f601683610a93565b915061097a82610bd8565b602082019050919050565b61098e81610b76565b82525050565b60006060820190506109a96000830186610921565b6109b66020830185610921565b6109c36040830184610985565b949350505050565b60006040820190506109e06000830185610921565b6109ed6020830184610985565b9392505050565b6000602082019050610a096000830184610930565b92915050565b6000604082019050610a246000830185610930565b610a316020830184610921565b9392505050565b60006020820190508181036000830152610a518161093f565b9050919050565b60006020820190508181036000830152610a7181610962565b9050919050565b6000602082019050610a8d6000830184610985565b92915050565b600082825260208201905092915050565b6000610aaf82610b76565b9150610aba83610b76565b9250827fffffffffffffffffffffffffffffffffffffffffffffffffffffffffffffffff03821115610aef57610aee610b80565b5b828201905092915050565b6000610b0582610b76565b9150610b1083610b76565b925082821015610b2357610b22610b80565b5b828203905092915050565b6000610b3982610b56565b9050919050565b60008115159050919050565b6000819050919050565b600073ffffffffffffffffffffffffffffffffffffffff82169050919050565b6000819050919050565b7f4e487b7100000000000000000000000000000000000000000000000000000000600052601160045260246000fd5b7f546f6b656e20646f65736e277420657869737473000000000000000000000000600082015250565b7f42616c616e6365206e6f742073756666696369656e7400000000000000000000600082015250565b610c0a81610b2e565b8114610c1557600080fd5b50565b610c2181610b40565b8114610c2c57600080fd5b50565b610c3881610b4c565b8114610c4357600080fd5b50565b610c4f81610b76565b8114610c5a57600080fd5b5056fea2646970667358221220567d9c9e3ddea9629d671b05f09fc9dec6ff82d5da36d6317c17e3774d87403064736f6c63430008010033",
  "immutableReferences": {},
  "source": "// SPDX-License-Identifier: MIT\npragma solidity >=0.4.22 <0.9.0;\n\nimport \"../node_modules/@openzeppelin/contracts/token/ERC20/IERC20.sol\";\nimport \"../node_modules/@openzeppelin/contracts/utils/math/SafeMath.sol\";\n\n\ncontract Wallet {\n  using SafeMath for uint256;\n  //Balance of multiple tokens\n  // address to Token Symbol (ticker) to value\n  mapping(address => mapping(bytes32 => uint256)) public balances;\n  \n  struct Token {\n    bytes32 ticker;\n    address tokenAddress;\n  }\n\n  bytes32[] public tokenList; // index of tokens\n  mapping(bytes32 => Token) public tokenMapping;\n\n  constructor() public {\n\n\n  }\n\n  function addToken(bytes32 ticker, address tokenAddress) external{\n    tokenMapping[ticker] = Token(ticker,tokenAddress);\n    tokenList.push(ticker);\n    \n  }\n\n  function deposit(uint amount, bytes32 ticker) external {\n   //if address == 0x000000 means that the ticker has not been add to the wallet.\n    require(tokenMapping[ticker].tokenAddress !=address(0), \"Token doesn't exists\");\n    IERC20(tokenMapping[ticker].tokenAddress).transferFrom(msg.sender, address(this), amount);\n    balances[msg.sender][ticker] =balances[msg.sender][ticker].add(amount);\n  }\n\n  function withdraw(uint amount, bytes32 ticker) external {\n    //if address == 0x000000 means that the ticker has not been add to the wallet.\n    require(tokenMapping[ticker].tokenAddress !=address(0), \"Token doesn't exists\");\n    require(balances[msg.sender][ticker] >= amount,\"Balance not sufficient\");\n    //substract using safemath\n    balances[msg.sender][ticker] = balances[msg.sender][ticker].sub(amount); \n    IERC20(tokenMapping[ticker].tokenAddress).transfer(msg.sender, amount);\n    \n  }\n}\n",
  "sourcePath": "/home/fribas/solidity/truffle/dex/contracts/Wallet.sol",
  "compiler": {
    "name": "solc",
    "version": "0.8.1+commit.df193b15.Emscripten.clang"
  },
  "schemaVersion": "3.4.1",
  "updatedAt": "2021-09-28T02:03:26.626Z",
  "devdoc": {
    "kind": "dev",
    "methods": {},
    "version": 1
  },
  "userdoc": {
    "kind": "user",
    "methods": {},
    "version": 1
  }
}